:100000000C9437100C947E100C947E100C947E107F
:100010000C947E100C947E100C947E100C947E1028
:100020000C947E100C947E100C94B72F0C94893095
:100030000C94002A0C947E100C947E100C947E106C
:100040000C947E100C947E100C947E100C947E10F8
:100050000C947E100C94592A0C947E100C947E10F3
:100060000C947E100C947E100C947E100C947E10D8
:100070000C947E100C947E100C947E100C947E10C8
:100080000C947E100C947E100C947E100C947E10B8
:100090000C947E100C947E100C947E100C947E10A8
:1000A0000C947E100C947E100C947E10A111AF1154
:1000B000B711BF11C711CF11D711DF11E711EF1120
:1000C000F711FF1107120F1217121F1227122F120A
:1000D00037123F1247124F1257125F1267126F12F8
:1000E00077127F12EF12EF12EF12EF12EF12EF12F0
:1000F000EF12EF12EF12EF1287128F1297129F1268
:10010000A712AF12B612BD12C412CB12D212D9125C
:10011000E012E712E71FE71F19201920662084204C
:100120009D219D218F202821392139213D223D22E9
:100130004F224F2246224F224F224F223D223D2264
:100140004B224F224F224B22F6301D3115321D31EA
:10015000153269318C311532E331F2313C68656119
:100160006465723E0A093C6669656C64206E616D67
:10017000653D22202220207769646765743D2273E3
:100180007461747573626172222F3E0A083C2F6895
:1001900065616465723E0A003C3F786D6C2076654F
:1001A0007273696F6E3D27312E302720656E636F45
:1001B00064696E673D277574662D38273F3E0A3C9B
:1001C0006F646F6F3E0A093C64617461206E6F75E5
:1001D00070646174653D2231223E0A093C212D2D57
:1001E0002041646420796F7520636F6465206865C1
:1001F0007265202D2D3E0A083C2F646174613E0A11
:10020000083C2F6F646F6F3E0A003C6669656C6442
:10021000206E616D653D276E616D65272F3E0A007A
:100220003C64697620636C6173733D22206F655F67
:10023000627574746F6E5F626F782220206E616DDC
:10024000653D226D6F64656C5F6E616D655F6275A3
:1002500074746F6E5F626F78223E0A093C62757437
:10026000746F6E206E616D653D2220616374696FED
:100270006E5F746F67676C655F6163746976652232
:10028000200A09747970653D22206F626A65637483
:100290002220200A636F6E6669726D3D2228556EBA
:1002A00029617263686976696E6720612070726F78
:1002B0006A656374206175746F6D61746963616CE4
:1002C0006C792028756E2961726368697665732080
:1002D000697473207461736B7320616E6420697339
:1002E000737565732E20446F20796F752077616E6A
:1002F0007420746F2070726F636565643F220A63B7
:100300006C6173733D22206F655F737461745F620B
:100310007574746F6E22200A69636F6E3D22666188
:100320002D61726368697665223E0A3C6669656C78
:1003300064206E616D653D2220616374697665227B
:1003400020207769646765743D22626F6F6C656118
:100350006E5F627574746F6E2220206F7074696FA7
:100360006E733D277B227465726D696E6F6C6F676B
:1003700079223A2022206172636869766522207DA5
:10038000272F3E0A083C2F627574746F6E3E0A0870
:100390003C2F6469763E0A0A003C627574746F6E85
:1003A000206E616D653D2220616374696F6E5F62CE
:1003B0007574746F6E5F6D6574686F645F6E616D88
:1003C00065222020747970653D22206F626A656322
:1003D00074222020737472696E673D22204F626A16
:1003E000656374427574746F6E22202F3E0A003C60
:1003F000212D2D206D6F64656C2E6E616D652063FF
:10040000726F6E202D2D3E0A3C7265636F72642000
:1004100069643D226D6F64656C5F6E616D655F69D7
:10042000725F63726F6E222020666F726365637203
:10043000656174653D22547275652220206D6F647C
:10044000656C3D222069722E63726F6E22203E0A17
:10045000093C6669656C64206E616D653D226E6164
:100460006D65223E6D6F64656C2E6E616D652E69E3
:10047000722E63726F6E3C2F6669656C643E0A3C37
:100480006669656C64206E616D653D2220757365DB
:10049000725F69642220207265663D226261736525
:1004A0002E757365725F726F6F74222F3E0A3C6601
:1004B00069656C64206E616D653D22646F616C6C72
:1004C0002220206576616C3D2246616C7365222F87
:1004D0003E0A3C6669656C64206E616D653D222054
:1004E0006163746976652220206576616C3D2254D3
:1004F000727565222F3E0A3C6669656C64206E61E8
:100500006D653D2220696E74657276616C5F6E75F3
:100510006D62657222203E313C2F6669656C643ED7
:100520000A3C6669656C64206E616D653D222069D8
:100530006E74657276616C5F7479706522203E6DB1
:10054000696E757465733C2F6669656C643E0A3C20
:100550006669656C64206E616D653D226E756D62C5
:10056000657263616C6C223E2D313C2F6669656C4F
:10057000643E0A3C6669656C64206E616D653D226F
:100580006D6F64656C5F69642220207265663D2230
:100590006D6F64656C5F6D6F64656C5F6E616D65DA
:1005A000222F3E0A3C6669656C64206E616D653D74
:1005B000227374617465223E636F64653C2F6669C3
:1005C000656C643E0A3C6669656C64206E616D65AD
:1005D0003D22636F6465223E6D6F64656C2E6D65B0
:1005E00074686F645F6E616D6528293C2F6669656C
:1005F0006C643E0A083C2F7265636F72643E0A0A9F
:10060000003C212D2D2054686973204D656E7520A6
:100610004974656D206D757374206861766520611D
:1006200020706172656E7420616E6420616E20615D
:100630006374696F6E202D2D3E0A3C6D656E756981
:1006400074656D2069643D225F6D656E755F6163E1
:10065000742220206E616D653D2220222020706171
:1006600072656E743D2220222020616374696F6E72
:100670003D222022202073657175656E63653D22E1
:100680002022202F3E0A0A003C212D2D205468698B
:1006900073204D656E75204974656D204D757374BA
:1006A0002068617665206120706172656E74202D0E
:1006B0002D3E0A3C6D656E756974656D2069643DFB
:1006C000225F6D656E755F63617465672220206EC1
:1006D000616D653D2220222020706172656E743D3F
:1006E000222022202073657175656E63653D22208E
:1006F00022202F3E0A0A003C212D2D2054686973C8
:10070000204D656E75204974656D2077696C6C208D
:1007100061707065617220696E2074686520557023
:10072000706572206261722C207468617427732076
:10073000776879204974206E65656473204E4F2078
:10074000706172656E74206F7220616374696F6E80
:10075000202D2D3E0A3C6D656E756974656D2069AE
:10076000643D225F6D656E755F726F6F742220202D
:100770006E616D653D222022202073657175656E66
:1007800063653D222022202F3E0A0A003C706167EB
:100790006520737472696E673D22202220206E618D
:1007A0006D653D222022203E0A093C67726F7570FC
:1007B0003E0A093C6669656C64206E616D653D2288
:1007C0002022202F3E0A083C2F67726F75703E0A68
:1007D000083C2F706167653E0A003C6E6F7465626D
:1007E0006F6F6B3E0A093C706167652073747269B4
:1007F0006E673D22202220206E616D653D22202201
:10080000203E0A093C67726F75703E0A093C6669B2
:10081000656C64206E616D653D222022202F3E0AAA
:10082000083C2F67726F75703E0A083C2F70616735
:10083000653E0A083C2F6E6F7465626F6F6B3E0AEF
:10084000003C212D2D206D6F64656C2E6E616D65F1
:1008500020616374696F6E2077696E646F77202DF5
:100860002D3E0A3C7265636F72642069643D226D9F
:100870006F64656C5F6E616D655F616374696F6EF7
:100880002220206D6F64656C3D222069722E6163A9
:1008900074696F6E732E6163745F77696E646F77CE
:1008A00022203E0A093C6669656C64206E616D65B4
:1008B0003D226E616D65223E6D6F64656C2E6E61CA
:1008C0006D652E616374696F6E3C2F6669656C643B
:1008D0003E0A3C6669656C64206E616D653D2274FC
:1008E000797065223E69722E616374696F6E732E32
:1008F0006163745F77696E646F773C2F6669656CBE
:10090000643E0A3C6669656C64206E616D653D22DB
:100910007265735F6D6F64656C223E6D6F64656CAC
:100920002E6E616D653C2F6669656C643E0A3C669F
:1009300069656C64206E616D653D22766965775FDF
:100940006D6F6465223E747265652C666F726D3CD6
:100950002F6669656C643E0A3C6669656C64206E4E
:10096000616D653D22766965775F74797065223EB9
:10097000666F726D3C2F6669656C643E0A3C666901
:10098000656C64206E616D653D2268656C70222027
:1009900020747970653D2268746D6C223E0A093CB2
:1009A0007020636C6173733D22206F655F766965AB
:1009B000775F6E6F636F6E74656E745F637265618F
:1009C000746522203E0A093C212D2D2041646420BB
:1009D000546578742048657265202D2D3E0A083CC8
:1009E0002F703E0A3C703E0A093C212D2D204D6F90
:1009F00072652064657461696C732061626F7574DF
:100A00002077686174206120757365722063616E60
:100A100020646F20776974682074686973206F623E
:100A20006A6563742077696C6C206265204F4B2087
:100A30002D2D3E0A083C2F703E0A083C2F66696542
:100A40006C643E0A083C2F7265636F72643E0A0A4A
:100A5000003C787061746820657870723D222F2F99
:100A60006669656C645B406E616D653D276E616DA6
:100A700065275D222020706F736974696F6E3D2257
:100A8000206174747269627574657322203E0A096C
:100A90003C617474726962757465206E616D653D48
:100AA0002220617474727322203E7B7D3C2F61741E
:100AB000747269627574653E0A083C2F78706174BF
:100AC000683E0A003C787061746820657870723DF9
:100AD000222F2F6669656C645B406E616D653D27F2
:100AE0006E616D65275D222020706F736974696F78
:100AF0006E3D2220616674657222203E0A093C2107
:100B00002D2D2041646420796F7572206669656CB3
:100B100064732068657265202D2D3E0A083C2F788D
:100B2000706174683E0A003C212D2D206D6F646554
:100B30006C2E6E616D6520696E68657269742073D4
:100B400065617263682076696577202D2D3E0A3CC9
:100B50007265636F72642069643D22766965775FB0
:100B600069642220206D6F64656C3D222069722EBD
:100B700075692E7669657722203E0A093C666965AB
:100B80006C64206E616D653D226E616D65223E6D07
:100B90006F64656C2E6E616D652E696E6865726935
:100BA000742E766965772E7365617263683C2F6673
:100BB00069656C643E0A3C6669656C64206E616DB3
:100BC000653D226D6F64656C223E6D6F64656C2EB1
:100BD0006E616D653C2F6669656C643E0A3C6669B2
:100BE000656C64206E616D653D2220696E6865727A
:100BF00069745F69642220207265663D22626173B8
:100C0000655F6D6F64756C652E766965775F696485
:100C1000222F3E0A3C6669656C64206E616D653DFD
:100C2000222061726368222020747970653D2278E9
:100C30006D6C223E0A093C212D2D204164642079EF
:100C40006F75722078706174682068657265202DF8
:100C50002D3E0A083C2F6669656C643E0A083C2FED
:100C60007265636F72643E0A0A003C212D2D206D6F
:100C70006F64656C2E6E616D65207365617263686B
:100C80002076696577202D2D3E0A3C7265636F7270
:100C9000642069643D226D6F64656C5F6E616D6593
:100CA0005F766965775F7365617263682220206D86
:100CB0006F64656C3D222069722E75692E766965B8
:100CC0007722203E0A093C6669656C64206E616D7E
:100CD000653D226E616D65223E6D6F64656C2E6EA2
:100CE000616D652E766965772E7365617263683C08
:100CF0002F6669656C643E0A3C6669656C64206EAB
:100D0000616D653D226D6F64656C223E6D6F64653B
:100D10006C2E6E616D653C2F6669656C643E0A3CA5
:100D20006669656C64206E616D653D222061726349
:100D300068222020747970653D22786D6C223E0A0D
:100D4000093C73656172636820737472696E673DF4
:100D500022536561726368204465736372697074BD
:100D6000696F6E223E0A093C212D2D2041646420CA
:100D7000796F7572206669656C6473206865726549
:100D8000202D2D3E0A083C2F7365617263683E0A70
:100D9000083C2F6669656C643E0A083C2F726563E7
:100DA0006F72643E0A0A003C212D2D206D6F646530
:100DB0006C2E6E616D6520696E6865726974207451
:100DC0007265652076696577202D2D3E0A3C726537
:100DD000636F72642069643D22766965775F696438
:100DE0002220206D6F64656C3D222069722E75692A
:100DF0002E7669657722203E0A093C6669656C6437
:100E0000206E616D653D226E616D65223E6D6F6481
:100E1000656C2E6E616D652E696E68657269742EE3
:100E2000766965772E747265653C2F6669656C64BA
:100E30003E0A3C6669656C64206E616D653D226D9D
:100E40006F64656C223E6D6F64656C2E6E616D65BE
:100E50003C2F6669656C643E0A3C6669656C64207B
:100E60006E616D653D2220696E68657269745F69A7
:100E7000642220207265663D22626173655F6D6F3A
:100E800064756C652E766965775F6964222F3E0A0A
:100E90003C6669656C64206E616D653D22206172FF
:100EA0006368222020747970653D22786D6C223E43
:100EB0000A093C212D2D2041646420796F75722030
:100EC00078706174682068657265202D2D3E0A086F
:100ED0003C2F6669656C643E0A083C2F7265636F3F
:100EE00072643E0A0A003C212D2D206D6F64656CF2
:100EF0002E6E616D65207472656520766965772058
:100F00002D2D3E0A3C7265636F72642069643D2238
:100F10006D6F64656C5F6E616D655F766965775F47
:100F2000747265652220206D6F64656C3D222069B6
:100F3000722E75692E7669657722203E0A093C6615
:100F400069656C64206E616D653D226E616D652220
:100F50003E6D6F64656C2E6E616D652E766965778A
:100F60002E747265653C2F6669656C643E0A3C664A
:100F700069656C64206E616D653D226D6F64656CA2
:100F8000223E6D6F64656C2E6E616D653C2F6669E7
:100F9000656C643E0A3C6669656C64206E616D65D3
:100FA0003D222061726368222020747970653D22A1
:100FB000786D6C223E0A093C747265653E0A093CF4
:100FC000212D2D2041646420796F7572206669653A
:100FD0006C64732068657265202D2D3E0A083C2FD5
:100FE000747265653E0A083C2F6669656C643E0A4A
:100FF000083C2F7265636F72643E0A0A003C212D23
:101000002D206D6F64656C2E6E616D6520696E6854
:101010006572697420666F726D2076696577202D20
:101020002D3E0A3C7265636F72642069643D2276CE
:101030006965775F69642220206D6F64656C3D226D
:101040002069722E75692E7669657722203E0A091D
:101050003C6669656C64206E616D653D226E616DF4
:1010600065223E6D6F64656C2E6E616D652E696ED6
:1010700068657269742E766965772E666F726D3C4D
:101080002F6669656C643E0A3C6669656C64206E17
:10109000616D653D226D6F64656C223E6D6F6465A8
:1010A0006C2E6E616D653C2F6669656C643E0A3C12
:1010B0006669656C64206E616D653D2220696E68AD
:1010C000657269745F69642220207265663D2262E0
:1010D0006173655F6D6F64756C652E766965775FAA
:1010E0006964222F3E0A3C6669656C64206E616DFE
:1010F000653D222061726368222020747970653D0D
:1011000022786D6C223E0A093C212D2D2041646419
:1011100020796F75722078706174682068657265D7
:10112000202D2D3E0A083C2F6669656C643E0A0836
:101130003C2F7265636F72643E0A0A003C212D2DBC
:10114000206D6F64656C2E6E616D6520666F726DCB
:101150002076696577202D2D3E0A3C7265636F729B
:10116000642069643D226D6F64656C5F6E616D65BE
:101170005F766965775F666F726D2220206D6F64A0
:10118000656C3D222069722E75692E76696577221D
:10119000203E0A09203C6669656C64206E616D65BD
:1011A0003D226E616D65223E6D6F64656C2E6E61D1
:1011B0006D652E766965772E666F726D3C2F666958
:1011C000656C643E0A3C6669656C64206E616D65A1
:1011D0003D226D6F64656C223E6D6F64656C2E6E92
:1011E000616D653C2F6669656C643E0A3C666965A5
:1011F0006C64206E616D653D2220617263682220FF
:1012000020747970653D22786D6C223E0A093C6637
:101210006F726D20737472696E673D22223E0A09F7
:101220003C73686565743E0A093C67726F75703E71
:101230000A093C212D2D2041646420796F757220AC
:101240006669656C64732068657265202D2D3E0AA1
:10125000083C2F67726F75703E0A083C2F736865F3
:1012600065743E0A083C2F666F726D3E0A083C2F7B
:101270006669656C643E0A083C2F7265636F726430
:101280003E0A0A00406170692E6F6E6368616E6786
:101290006528276669656C645F6E616D6527290A3C
:1012A000646566205F6F6E6368616E67655F66691F
:1012B000656C645F6E616D652873656C66293A0ABA
:1012C0000973656C662E6669656C645F6E616D6539
:1012D000203D2027270A0A0800406170692E6465B6
:1012E00070656E647328276669656C645F6E616DF6
:1012F0006527290A646566205F636F6D7075746584
:101300005F6669656C645F6E616D652873656C66A8
:10131000293A0A0973656C662E6669656C645F6EAE
:10132000616D65203D2027270A0A08004061706929
:101330002E6D756C74690A64656620756E6C696ED5
:101340006B2873656C662C2076616C756573293A21
:101350000A09232041646420636F64652068657214
:10136000650A72657475726E2073757065722843B4
:101370006C6173734E616D652C2073656C66292EEC
:10138000756E6C696E6B2876616C756573290A0AD7
:101390000800406170692E6D756C74690A64656639
:1013A0002077726974652873656C662C2076616C91
:1013B000756573293A0A09232041646420636F64C8
:1013C0006520686572650A72657475726E20737542
:1013D00070657228436C6173734E616D652C207368
:1013E000656C66292E77726974652876616C7565FF
:1013F00073290A0A0800406170692E6D6F64656C7C
:101400000A646566206372656174652873656C663D
:101410002C2076616C756573293A0A092320416492
:101420006420636F646520686572650A726574750F
:10143000726E20737570657228436C6173734E61B0
:101440006D652C2073656C66292E63726561746509
:101450002876616C756573290A0A08006E65775FE6
:101460006669656C64203D206669656C64732E4F07
:101470006E65326D616E7928636F6D6F64656C5F48
:101480006E616D653D27272C20696E7665727365E8
:101490005F6E616D653D27272C20737472696E67DE
:1014A0003D2727290A006E65775F6669656C6420B1
:1014B0003D206669656C64732E4D616E79326D6195
:1014C0006E7928636F6D6F64656C5F6E616D653DED
:1014D00027272C20737472696E673D2727290A001D
:1014E0006E65775F6669656C64203D206669656C32
:1014F00064732E4D616E79326F6E6528636F6D6F08
:1015000064656C5F6E616D653D27272C2073747276
:10151000696E673D2727290A006E65775F666965F2
:101520006C64203D206669656C64732E53656C6540
:101530006374696F6E28737472696E673D27272C18
:101540002073656C656374696F6E3D5B2827272C7B
:10155000202727292C202827272C202727292C5DE6
:10156000290A006E65775F6669656C64203D2066B8
:1015700069656C64732E5465787428737472696E2F
:10158000673D2727290A006E65775F6669656C6489
:10159000203D206669656C64732E496E74656765CD
:1015A0007228737472696E673D2727290A006E6579
:1015B000775F6669656C64203D206669656C64735D
:1015C0002E48544D4C28737472696E673D27272945
:1015D0000A006E65775F6669656C64203D20666908
:1015E000656C64732E466C6F617428737472696ED7
:1015F000673D2727290A006E65775F6669656C6419
:10160000203D206669656C64732E4461746574695D
:101610006D6528737472696E673D2727290A006E0D
:1016200065775F6669656C64203D206669656C64FA
:10163000732E4461746528737472696E673D272741
:10164000290A006E65775F6669656C64203D2066D7
:1016500069656C64732E4368617228737472696E75
:10166000673D2727290A006E65775F6669656C64A8
:10167000203D206669656C64732E426F6F6C6561F6
:101680006E28737472696E673D2727290A006E659C
:10169000775F6669656C64203D206669656C64737C
:1016A0002E42696E61727928737472696E673D2784
:1016B00027290A0066726F6D206F646F6F20696D55
:1016C000706F7274206170692C206669656C647338
:1016D0002C206D6F64656C730A0A636C61737320F0
:1016E000546573744D6F64756C654E616D652854F7
:1016F00072616E73616374696F6E43617365293AD9
:101700000A096465662073657455702873656C6694
:10171000293A0A0909737570657228546573744D06
:101720006F64756C654E616D652C2073656C662900
:101730002E736574557028290A0A0066726F6D2031
:101740006F646F6F20696D706F7274206170692CA7
:10175000206669656C64732C206D6F64656C730A18
:101760000A636C617373204D6F64756C654E616DB7
:1017700065286D6F64656C732E4D6F64656C293AD6
:101780000A095F696E6865726974203D20276D6F74
:1017900064756C652E6E616D65270A6E616D6520DE
:1017A0003D206669656C64732E43686172287374AA
:1017B00072696E673D274E616D6527290A0A0066CA
:1017C000726F6D206F646F6F20696D706F7274201F
:1017D0006170692C206669656C64732C206D6F6480
:1017E000656C730A0A636C617373204D6F64756C6A
:1017F000654E616D65286D6F64656C732E4D6F6409
:10180000656C293A0A095F6E616D65203D20276D80
:101810006F64756C652E6E616D65270A5F64657314
:101820006372697074696F6E203D20274E65772062
:101830004465736372697074696F6E270A6E616DB7
:1018400065203D206669656C64732E43686172286B
:10185000737472696E673D274E616D6527290A0AA8
:10186000007B0A09276E616D65273A2027272C0A1D
:1018700027766573696F6E273A2027272C0A27730E
:10188000756D6D617279273A2027272C0A2720630E
:10189000617465676F727927203A2027272C0A2701
:1018A00020617574686F7227203A2027272C0A2739
:1018B0006D61696E7461696E6572273A2027272C05
:1018C0000A2777656273697465273A2027272C0AEF
:1018D000276C6963656E7365273A2027272C0A27D2
:1018E00020636F6E7472696275746F727327203A29
:1018F000205B0A0927272C0A085D2C0A27646570DB
:10190000656E6473273A205B0A0927272C0A085D55
:101910002C0A272065787465726E616C5F6465704F
:10192000656E64656E6369657327203A207B0A09DA
:1019300027707974686F6E273A205B0A0927272C75
:101940000A085D2C0A087D2C0A2764617461273A15
:10195000205B0A0927272C0A085D2C0A2720696EBC
:101960007374616C6C61626C6527203A20547275E7
:10197000652C0A27206175746F5F696E7374616CE2
:101980006C27203A2046616C73652C0A2720617011
:10199000706C69636174696F6E27203A2046616CD0
:1019A00073652C0A087D002B0014001A000800152E
:1019B0000017001C0018000C00120013002A002958
:1019C0000004001600070009000A000B000D000EBD
:1019D000000F0033003444E1001D001B0006001915
:1019E000000500110010003600370038002800E61E
:1019F00000E000E200E30002512C452C450151506B
:101A000000510052004F0035001E001F0020002131
:101A10000022002300240025002600270001004C9E
:101A2000003A003B003C003D003E003F002D002EF0
:101A3000002F0030003100390040004100420043D7
:101A40000044004500320064004B004E00280001B5
:101A5000000100010001000100095109510100AC21
:101A600000AA00A900AB0035021E021F02200221BD
:101A70000222022302240225022602270201004C30
:101A8000003A003B003C003D003E003F002D022E8E
:101A9000022F02300231023900400041004200436F
:101AA0000044004500320264024A004D0028000153
:101AB000000100010001000100085108510100ACC3
:101AC00000AA00A900AB00005C00000000000000BC
:101AD000000000000000002400250026004C00004B
:101AE00000000000000000000000000000000021D5
:101AF00000220023000000000000000000000000A1
:101B0000000000000000001E001F0020000000DF99
:101B10005C00000000000001000000000001000067
:101B2000002700000000000000000000000000008E
:101B30000000000000000024002500260000000036
:101B40000000000000000000000000000000002174
:101B50000022002300000000000000000000000040
:101B6000000000000000001E001F00200000000018
:101B70000000000000000000000000000000000065
:101B8000002700000000000000000000000000002E
:101B90000000000000000000000000000000000045
:101BA0000000000000000000000000500051005242
:101BB000004F0000000000000000000000000000D6
:101BC0000000000000000000000000000000000015
:101BD0000000000000000006510100010007510054
:101BE00000000000000000000000000000000000F5
:101BF00000000000000000000000000000000000E5
:101C000000FD00FE00FF00F100F200EF00EE00ED2D
:101C100000F00000000000000000000000000000D4
:101C200000000000000000000000000000000000B4
:101C3000000000000000000751010001000000004A
:101C40000000000000000000000000000000000094
:101C50000000000000000000000000000000000084
:101C600000FD00FE00FF00F100F200FB00FA00F9A9
:101C700000FC000000000000000000000000000068
:101C80000000000000000000000000000000000054
:101C90000000000000000000000000000000000044
:101CA000000000000000000000295D2A5D2B5D2C73
:101CB0005D2D5D2E5D2F5D305D315D325D0000007C
:101CC00000335D345D355D365D375D385D395D3AD5
:101CD0005D3B5D3C5D000000003D5D3E5D00000041
:101CE00000000000000000000000000000000000F4
:101CF00000000000000000000000000000000000E4
:101D00000000000000000000003F5D405D415D42BA
:101D10005D435D445D4F5D505D515D525D0000006F
:101D200000535D545D555D565D575D585D595D5A74
:101D30005D5B5D5C5D00000000455D465D475D48A4
:101D40005D495D4A5D4B5D4C5D4D5D4E5D00000043
:101D50000000000000000000000000000000000083
:101D60000000000000000000000000000000002A49
:101D70002B28000000000000000000000000000010
:101D8000000029000000002C1E34202122243426CB
:101D900027252E362D3738271E1F202122232425C4
:101DA000263333362E37381F0405060708090A0B79
:101DB0000C0D0E0F101112131415161718191A1BEB
:101DC0001C1D2F3130232D350405060708090A0B89
:101DD0000C0D0E0F101112131415161718191A1BCB
:101DE0001C1D2F3130354C000000000000000000A9
:101DF00000000000000000000000000000000000E3
:101E000000000000000000000000007E0F00D4FF72
:101E1000FFFFC7000000780A002530313662003A23
:101E2000200025303258000A722F632030313233BF
:101E30003435363738394142434445460A00290A89
:101E4000002575002F002575005D28002564002001
:101E500000256400200025640020002564007C002B
:101E600025303258006D6F7573656B6579205B6244
:101E7000746E7C782079207620685D287265702FDA
:101E800061636C293A205B005B735D004B6579628E
:101E90006F6172642073746172742E0A005B575D07
:101EA000005B535D005B525D005B445D005B435D26
:101EB00000120356004F0049004400340030004730
:101EC00000530000001E0356006900630074006F99
:101ED00000720020004C0075006300610063006820
:101EE00000690000000403090409025B000301000B
:101EF000A0FA0904000001030101000921110100F9
:101F0000012240000705810308000A0904010001BD
:101F10000300000009211101000122B6000705821B
:101F20000320000A09040200020300000009211135
:101F30000100012222000705830320000107050399
:101F400003200001120110010000000855F0313596
:101F50000200010200010631FF0974A10109751593
:101F60000026FF009520750881020976150026FFDE
:101F700000952075089102C005010902A1018502A2
:101F80000901A10005091901290815002501950875
:101F9000750181020501093009311581257F9502FE
:101FA0007508810609381581257F95017508810618
:101FB000050C0A38021581257F950175088106C038
:101FC000C005010980A101850319012AB700150187
:101FD00026B700950175108100C0050C0901A1010B
:101FE000850419012AA002150126A0029501751089
:101FF0008100C005010906A1018505050719E02931
:10200000E7150025019508750181020507190029CA
:10201000EF1500250195F0750181020508190129C8
:1020200005950575019102950175039101C00501A2
:102030000906A101050719E029E715002501950802
:10204000750181029501750881010507190029FFB5
:10205000150026FF0095067508810005081901295D
:1020600005950575019102950175039101C0112433
:102070001FBECFEFDAE0DEBFCDBF04B603FE27C040
:102080008091C3029091C402A091C502B091C60292
:102090008730904BA740B04BD1F41092C3021092FE
:1020A000C4021092C5021092C60214BE84B7877F84
:1020B00084BF0FB6F894A8958091600088618093E2
:1020C0006000109260000FBEE0E0F8E3099511E0B7
:1020D000A0E0B1E0ECE8F5E602C005900D92AE3B61
:1020E000B107D9F722E0AEEBB1E001C01D92A33CED
:1020F000B207E1F70E94EA2C0C94C4320C94000061
:10210000FF93EF93E091BE01F091BF01309709F08A
:102110000995EF91FF910895FC018591803011F0B0
:10212000EFDFFBCF0895FF27E0E230E247FF0CC06E
:10213000419597FF09C0EDE2609570958095909567
:10214000611D711D811D911D27FF02C0219530E386
:1021500050E2AA27660F771F881F991FAA1FA4178E
:1021600010F0A41B63955A95A9F7AA3008F0A95F4F
:10217000A05DAF93F395611571058105910541F758
:10218000ED3211F4EF93F395F21718F43F93F395B2
:10219000FBCF8F91B5DFFA95E1F70895E991F991B9
:1021A0008591803021F0853219F0AADFF9CF0895AA
:1021B00020E0E89455915532C1F3503311F46894FE
:1021C00055915A3348F4505390F3220F022E220FA8
:1021D000220F200D250FF4CF0EF4219589919991AE
:1021E000533619F3533729F1533559F1BC01882778
:1021F0009927E8945C3621F48991999168945591D6
:10220000543639F446EF7EF077FF0DC08FEF9FEF25
:102210000AC055374AE039F0583540E121F05236CE
:1022200042E009F00895FF93EF937DDFEF91FF9176
:10223000B7CFFF93EF93FC0181918030B9F360DF5A
:10224000FBCFFF93EF9368DFF1CFDF93CF93CDB751
:10225000DEB72596A3DFCF91DF91089555985D985D
:10226000209828980C9494110C9481110C94951139
:102270000F9303E021E042E00E943D130F91089587
:10228000CF9381113CC0C62F81E00E940426882391
:1022900071F1CC2391F00E94322A9093C101809376
:1022A000C0018091C201811106C082EE0E94F81E19
:1022B00081E08093C2018BE21FC00E94322A90937A
:1022C000C1018093C0018091C201811106C082EEDC
:1022D0000E94F81E81E08093C20181EE0E94F81EE8
:1022E0008BE20E94991F81EECF910C944E1FCC235C
:1022F00011F089EA01C08AEACF910C94991FCF911D
:1023000008958091C201882371F08091C00190915D
:10231000C1010E944A2A8F3E924028F082EE0E941C
:102320004E1F1092C2010895089589529D4584332D
:10233000910508F054C1DB018A5A9F4FFC010C94AF
:10234000683212968C91882319F081E698E145C194
:1023500081EE0E944E1F81E10E944E1F40C11296E5
:102360008C91882309F43BC18FEB97E136C112961B
:102370008C91882309F433C18BE397E12EC1129627
:102380008C91882309F42BC184EB96E126C1129627
:102390008C91882309F423C18EE896E11EC1129620
:1023A0008C91882309F41BC187E696E116C1129629
:1023B0008C91882309F413C183E496E10EC112962F
:1023C0008C91882309F40BC18FE196E106C1129626
:1023D0008C91882309F403C187EF95E1FEC0129622
:1023E0008C91882309F4FBC082ED95E1F6C012962A
:1023F0008C91882309F4F3C08EEA95E1EEC0129621
:102400008C91882309F4EBC087E895E1E6C0129629
:102410008C91882309F4E3C083E695E1DEC012962F
:102420008C91882309F4DBC089E195E1D6C012962E
:102430008C91882309F4D3C080EE94E1CEC012962B
:102440008C91882309F4CBC086EA94E1C6C0129629
:102450008C91882309F4C3C08CE594E1BEC0129628
:102460008C91882309F4BBC086EF93E1B6C0129625
:102470008C91882309F4B3C082E993E1AEC012962F
:102480008C91882309F4ABC08CE293E1A6C012962C
:102490008C91882309F4A3C089ED92E19EC0129625
:1024A0008C91882309F49BC084E892E196C012962F
:1024B0008C91882309F493C08CE391E18EC012962D
:1024C0008C91882309F48BC08DEF9FE086C0129613
:1024D0008C91882309F483C086EE9EE07EC012961C
:1024E0008C91882309F47BC087EA9DE076C0129620
:1024F0008C91882309F473C08AE69CE06EC0129622
:102500008C91882309F46BC087E29BE066C0129629
:102510008C91882309F463C084EC9AE05EC0129623
:102520008C91882309F45BC081E59AE056C012962D
:102530008C91882309F453C081E498E04EC0129630
:102540008C91882309F44BC08AED97E046C012961F
:102550008C91882309F443C08CE897E03EC0129622
:102560008C918823E1F187EF96E037C012968C9129
:102570008823A9F188E896E030C012968C918823D0
:1025800071F181E096E029C012968C91882339F18F
:102590008FEE93E022C012968C91882301F189E995
:1025A00093E01BC012968C918823C9F080E292E0E0
:1025B00014C012968C91882391F08AE092E00DC0AD
:1025C00012968C91882359F088E991E006C0129602
:1025D0008C91882321F08CE591E00E94BB1481E06E
:1025E000089581E0089508950C94F3121F93CF93FA
:1025F000DF9300D000D01F92CDB7DEB749835A8356
:102600006B833091F50189819A81311114C0662361
:1026100059F0222349F00E941927182F682F898129
:102620009A810E94C22603C00E94ED26182F69815C
:102630007A81812F04C00E94192769817A810F90C5
:102640000F900F900F900F90DF91CF911F910C94EE
:10265000F314FC01262F40815181628173818481B2
:102660000C94F612CF93DF93EC0160E00E942913E3
:10267000BE01DF91CF910C94F4128F929F92AF9292
:10268000BF92CF92DF92EF92FF920F931F936B0155
:102690007C0181E090E0A0E0B0E04C015D0104C06D
:1026A000880C991CAA1CBB1C4A95D2F7AC01BD0131
:1026B00004C0440F551F661F771F2A95D2F748297B
:1026C00059296A297B2904C0880F991FAA1FBB1F9B
:1026D0000A95D2F78A019B010C211D212E213F2151
:1026E000401751076207730739F4BC01CD016C290B
:1026F0007D298E299F290AC080959095A095B09537
:10270000BC01CD016C217D218E219F211F910F9154
:10271000FF90EF90DF90CF90BF90AF909F908F9001
:1027200008950E943E28811102C00E94E5280C9461
:102730002E110C94341108950E942B220E949B1399
:102740002FEF84E39CE0215080409040E1F700C0EF
:1027500000000C947F2A0F931F93CF93DF93EC011B
:1027600061E00E9429138C01BE010E94361188236A
:1027700049F1BE01C8010E948F1B882319F1BE01D7
:10278000C8010E94E11B8823E9F0BE01C8010E9434
:102790000C1D8823B9F08A81882369F001158CE526
:1027A000180731F00F3D1C4531F40E94E5280AC09E
:1027B0000E949C1307C0CE01DF91CF911F910F9112
:1027C0000C94F11280E0DF91CF911F910F91089549
:1027D000DF92EF92FF920F931F93CF93DF93E82F37
:1027E000F0E0E959F24ED490282F269526952695AB
:1027F00030E0F901E95FF14E0491877010E0082E96
:1028000002C0159507950A94E2F701701127F901A6
:10281000E950F24EE490F12C082E02C0F594E794B2
:102820000A94E2F791E0E922FF24F901E951F24E1E
:10283000C491D0E002C0D595C7958A95E2F7C170E2
:10284000DD270115110519F081EE0E94F81EE11433
:10285000F10419F086EE0E94F81E8D2D0E94991F3A
:10286000EF2819F086EE0E944E1F012B19F081EE21
:102870000E944E1FCD2B51F08CE2DF91CF911F9122
:102880000F91FF90EF90DF900C94991FDF91CF9103
:102890001F910F91FF90EF90DF900895EF92FF92BC
:1028A0000F931F93CF93DF938C01F62E8AE0E82ECF
:1028B000F8018491882309F457C0813009F042C09F
:1028C000E8012196FE018491813031F42196FE01C8
:1028D00084910E94991F39C0823039F4E801229610
:1028E000FE0184910E94F81E30C0833039F4E80163
:1028F0002296FE0184910E944E1F27C0843029F544
:10290000E8012296FE01249180E090E030E020531F
:1029100031092A30310560F4E89EA001E99E500D8E
:102920001124C901840F951F2196FE012491EECF39
:10293000009759F0EFE9FFE03197F1F700C0000090
:102940000197F6CF0E94E813E8018E010F5F1F4F39
:102950008F2D882309F4ACCFEFE9FFE03197F1F731
:1029600000C000008150F5CFDF91CF911F910F91F2
:10297000FF90EF90089560E00C944E148295982F8C
:10298000937344E0949F900111248C7C86958695E6
:10299000282B822F8575880F2A7A2695822B0895F9
:1029A000CF93DF93D92F0E94BE14C82F8D2F0E9482
:1029B000BE142C2F30E0322F2227A901482BCA0148
:1029C000DF91CF91089508950C94E31481E0089568
:1029D0000C94E614CF93C82F0E94E4148C2F0E940D
:1029E000E814CF91089520E3829FC0011124FC01D7
:1029F0002CE0729FE00DF11D1124E60FF11DEE0F8A
:102A0000FF1FE955F64E859194910895CF93DF937A
:102A10000E94F3140E940816EC01811521E592072B
:102A200008F043C0811540E5940708F08AC0883E4D
:102A3000910520F5803E910508F0E6C0883A9105A1
:102A400070F4853A910508F074C08130910509F45D
:102A5000DBC008F4D7C0049708F0D6C0D3C08F3BC2
:102A6000910508F0CFC0C85AD0E0CC0FDD1FC35D80
:102A7000DE4F0990D881C02DD464C6C0C11580E254
:102A8000D80758F4C11521E0D20708F0BDC0CD3EEB
:102A9000D10508F4B7C0D065B7C0C11540E4D4076C
:102AA00008F4B0C0DF70D06AAFC0C11585E5D807A3
:102AB000A0F4C11524E5D20708F08AC0C11543E58A
:102AC000D40708F06FC0C11582E5D80708F054C0DC
:102AD000DC2FCC27C16FD06A97C0C11529E5D2077A
:102AE000A0F4C11548E5D40708F077C0C11586E504
:102AF000D80708F087C08C2F0E949C168F71C82FB2
:102B0000D0E0DC2FCC27D0627FC0C1152AE5D207E8
:102B100008F468C0CE0190568115904208F072C04A
:102B20008D2F8F710E949C16DD27D0628F71D82B5C
:102B30006BC0C55AD0E0C55ADE4FC881D0E0D06422
:102B400063C074E0969587957A95E1F783709C2F22
:102B5000937021E030E002C0220F331F9A95E2F714
:102B60003C68382BCF70C695C69580E2C89FE001BF
:102B70001124C22BD32B48C0CE018370992721E0AA
:102B800030E002C0220F331F8A95E2F78C2F869522
:102B9000869540E2849FC0011124E901C82BD92BFE
:102BA000DC6832C0CE018370992721E030E002C09A
:102BB000220F331F8A95E2F78C2F8695869540E287
:102BC000849FC0011124E901C82BD92BDA681CC0ED
:102BD000DC2FCC27C46FD06A17C0DC2FCC27C06F86
:102BE000D06A12C08C2F8F700E949C1694E0D695EC
:102BF000C7959A95E1F7CF70D0E0DC2FCC27D0694C
:102C0000C82B02C0C0E0D0E0CE01DF91CF91089583
:102C10008238910569F1B0F48133910509F46DC0F2
:102C200048F48932910509F463C08A32910509F4A8
:102C300069C008958533910509F455C0893391051C
:102C4000B9F00895833E910569F138F4803E91050D
:102C5000B1F0823E910509F10895863E9105A9F1F2
:102C6000873E9105B9F1843E910509F064C023C007
:102C70002091B40220FD4FC021FD4DC008958091E8
:102C8000B40280FD44C08091B50280FF44C08091B1
:102C9000B40284FD42C083EE4DC08091B40282FF35
:102CA00038C0F5CF8091B40282FD33C08091B50267
:102CB00080FD31C0ECCF8091B50281FF32C08091A0
:102CC000B40284FD2AC087EE35C08091B40283FF30
:102CD00026C0F5CF8091B40283FD21C08091B5025A
:102CE00081FD1FC0ECCF8091B40285FD1CC01DC0CA
:102CF0008091B40285FD19C016C08091B40286FD92
:102D000016C017C08091B40286FD13C010C089E3BD
:102D100011C082EE0FC080EE0DC080E00BC086EEC9
:102D200009C084EE07C089E205C085E303C08AE2DA
:102D300001C081E390E008959091B40292FF0DC02C
:102D4000282F2871283019F4877F846006C0282F27
:102D50002471243011F48B7F886093FF0DC0282FDD
:102D60002871283119F4877E846106C0282F2471C8
:102D7000243111F48B7E88612091B50220FF0DC0B3
:102D8000382F3871383019F4877F816006C0382FAA
:102D90003171313011F48E7F886021FF0DC0282FF2
:102DA0002871283119F4877E816106C0282F21718E
:102DB000213111F48E7E886194FD877E0895E82F7D
:102DC000F0E0EE0FFF1FE855FD4F808191810895DF
:102DD000CF92DF92EF92FF920F931F93CF93DF93E7
:102DE00087E29EE10E948C1088EAE82E82E0F82EAD
:102DF000C0E0D0E092E2C92E9EE1D92E09E11EE1A9
:102E0000DF93CF93DF92CF920E9425118FE19EE155
:102E10000E948C10F701819191917F010E94D01442
:102E20009F938F931F930F930E94251187E19EE13B
:102E30000E948C1021968DB79EB708960FB6F89415
:102E40009EBF0FBE8DBFC430D105D1F6DF91CF91AB
:102E50001F910F91FF90EF90DF90CF90089580EA3F
:102E60008A95F1F7089500C008950C942F17F894EF
:102E7000E82FE295EF70F0E031A1282F2F7081E06C
:102E800090E001C0880F2A95EAF7982F9095932338
:102E900091A392A1892B82A3789408950F931F93F5
:102EA000CF93DF9386E60E94371784E90E94371795
:102EB00080E90E94371781E90E943717CEE5D1E0FB
:102EC0000AE611E089910E9437170C171D07D1F708
:102ED0001092A1021092A0021092A9021092A802D0
:102EE0001092A3021092A2021092AB021092AA02B8
:102EF0001092A5021092A4021092AD021092AC02A0
:102F00001092A7021092A6021092AF021092AE0287
:102F100084E00E942418DF91CF911F910F910C94AF
:102F200091137F928F929F92AF92BF92CF92DF9236
:102F3000EF92FF920F931F93CF93DF9300EA12E07B
:102F40008AE6E82E81E0F82EC0E0D0E0712CAA24B9
:102F5000A394B12C4701F7018081F894E82FE29502
:102F6000EF70F0E021A18F70A50102C0440F551F42
:102F70008A95E2F7CA01922F982B91A392A180958E
:102F8000892382A378940E943317EEE5F1E020E0D4
:102F900030E0C12CD12C4191A42FA295AF70B0E0AC
:102FA00090968C9190E04F7002C0959587954A95C8
:102FB000E2F780FD08C0C501022E02C0880F991FEC
:102FC0000A94E2F702C080E090E0C82AD92A2F5F75
:102FD0003F4F2C303105F9F65FEFE51AF50AF401A1
:102FE00080810E943717C330D10511F00E94351738
:102FF000F80180819181C816D90621F0D182C08262
:1030000081E001C080E0782A21960E5F1F4FC43016
:10301000D10509F09FCF272D44E068EA72E080EAED
:1030200092E00E9425180E949913872DDF91CF917D
:103030001F910F91FF90EF90DF90CF90BF90AF90D6
:103040009F908F907F9008950895FF920F931F9304
:10305000CF93DF93F82E092F162FD72FC42F2223BB
:1030600049F081E08093C5010E94322A9093C40107
:103070008093C3018091C5018823D9F08091C30159
:103080009091C4010E944A2A069798F0EF2DF02FE4
:10309000A12FBD2F80E090E04C2F50E084179507C2
:1030A00034F4219131912D933D930196F7CF1092F5
:1030B000C501DF91CF911F910F91FF9008958091ED
:1030C000CA0190E0880F991FFC01E85EFE4F208145
:1030D000FC01E85FFE4F80819091CF01191614F436
:1030E0002093CF019091CF0197FF04C0922F91952B
:1030F0009093CF019091D001191614F42093D00130
:103100009091D00197FF03C021952093D001909119
:10311000D201191614F48093D2019091D20197FF35
:1031200004C0982F91959093D2019091D1011916D6
:1031300014F48093D1019091D10197FF03C0819540
:103140008093D1013091CF013323E1F02091D00160
:103150002223C1F045EB3403C0011124992319F057
:103160009093CF0103C081E08093CF0135EB23031F
:10317000C0011124992319F09093D00103C081E07C
:103180008093D0014091D201442379F03091D10154
:10319000332359F025EB4203A00111245093D201AF
:1031A0003203C00111249093D10108954091CA01C6
:1031B000242F30E0220F331FF901E85EFE4F90818B
:1031C0008D3E11F4919502C08E3E19F49093D0017A
:1031D0003EC08F3E11F4919502C0803F19F4909348
:1031E000CF0135C0F901E85FFE4F9081893F19F0AA
:1031F0008A3F21F491959093D10129C08B3F11F41E
:10320000919502C08C3F19F49093D20120C09FE0A9
:10321000980F983078F421E030E0B90102C0660FD1
:10322000771F9A95E2F7CB019091CE01892B80937D
:10323000CE010DC08D3F11F481E007C08E3F11F427
:1032400082E003C08F3F19F483E08093CA0180912C
:10325000CA0148130C945F1808954091CA018D3E2D
:1032600039F49091D00197FF39C01092D0014FC02E
:103270008E3E29F49091D0011916BCF32FC08F3ED9
:1032800039F49091CF0197FF29C01092CF013FC030
:10329000803F29F49091CF011916BCF31FC0893FDC
:1032A00039F49091D1011916CCF41092D1012FC0AC
:1032B0008A3F29F49091D10197FF10C0F6CF8B3F40
:1032C00039F49091D20197FF09C01092D2011FC02A
:1032D0008C3F21F49091D2011916BCF39FE0980F16
:1032E000983080F421E030E0B90102C0660F771F0A
:1032F0009A95E2F7CB0180959091CE018923809336
:10330000CE0105C08D5F833010F41092CA01809108
:10331000CA0148130C945F1808958091790283FFC5
:103320007EC085E69EE10E948C108091CE011F92A6
:103330008F9380E69EE19F938F930E9425118EE5E7
:103340009EE10E948C108091CF01282F082E000C46
:10335000330B3F938F938BE59EE19F938F930E9456
:10336000251189E59EE10E948C108091D001282FC3
:10337000082E000C330B3F938F9386E59EE19F93BD
:103380008F930E94251184E59EE10E948C1080910C
:10339000D101282F082E000C330B3F938F9381E52A
:1033A0009EE19F938F930E9425118FE49EE10E94DE
:1033B0008C108091D201282F082E000C330B3F93E4
:1033C0008F938CE49EE19F938F930E94251189E453
:1033D0009EE10E948C108091CB011F928F9386E416
:1033E0009EE19F938F930E94251184E49EE10E94A9
:1033F0008C108091CC011F928F9381E49EE19F936A
:103400008F930E9425118EE39EE10E948C108DB750
:103410009EB74C960FB6F8949EBF0FBE8DBF0E940C
:10342000322A2091CF01211104C02091D001222302
:1034300021F09093C9018093C8012091D1012111FD
:1034400004C02091D201222321F09093C7018093E0
:10345000C6018DEC91E00C94681DEF92FF920F93E2
:103460001F93CF93DF9300D000D000D0CDB7DEB74D
:1034700086E0EDECF1E0DE01119601900D928A9567
:10348000E1F7E090CF01F090D0010091D1011091CF
:10349000D2011092CF011092D0011092D10110925E
:1034A000D201E11002C0FF20B1F08091C8019091DB
:1034B000C9010E944A2AE091CA01F0E0EE0FFF1F05
:1034C000E05FFE4F208131812817390720F4E09218
:1034D000CF01F092D001111102C00023B1F0809110
:1034E000C6019091C7010E944A2AE091CA01F0E00A
:1034F000EE0FFF1FE050FF4F208131812817390761
:1035000020F40093D1011093D2018091CF01811159
:103510000BC08091D001811107C08091D101811130
:1035200003C08091D20181110E948D19EB82FC822F
:103530000D831E8386E0FE013196ADECB1E0019073
:103540000D928A95E1F726960FB6F894DEBF0FBE6E
:10355000CDBFDF91CF911F910F91FF90EF90089514
:10356000EDECF1E086E0DF011D928A95E9F710921B
:10357000CB011092CC0108950C94401152985A9AA4
:1035800053985B9A89B182FB882780F94B9902C0D6
:1035900090E001C092E0892B8093D5010895E091DD
:1035A000D501EE0FEE0FE093D50149B142FB88271C
:1035B00080F990E049B143FB222720F930E043FF36
:1035C00002C022E030E0822B932B8E2B8093D5011A
:1035D0008F70E82FF0E0E259FE4F90818091D40186
:1035E000890F8093D40184305CF08091D3018F5F88
:1035F0008093D30160E080E00E94BC1A21E001C00A
:1036000020E08091D4018D3F54F48091D30181500A
:103610008093D30161E080E00E94BC1A21E0809198
:10362000D401082E000C990B64E070E00E94543223
:103630008093D401822F08950F931F93CF93DF932C
:10364000C42FD22FFC0182818823C9F04093D80176
:103650000E94322A9093D7018093D60180E28C0F8A
:10366000883008F057C0C77081E001C0880FCA9544
:10367000EAF7DF91CF911F910F910C94A21F8091D7
:10368000D801481330C08091D6019091D7010E9493
:103690004A2A883C910538F510E21D0FCD17B9F084
:1036A00080E28C0F883040F4C77081E001C0880F41
:1036B000CA95EAF70E94A91F183028F581E09D2FCE
:1036C000977001C0880F9A95EAF70E94A21F802F79
:1036D0000E94991F1830F0F4D77081E001C0880F64
:1036E000DA95EAF70AC080E28C0F883098F4C77048
:1036F00081E001C0880FCA95EAF7DF91CF911F9151
:103700000F910C94A91F802FDF91CF911F910F91E2
:103710000C94991FDF91CF911F910F9108950F93F2
:103720009C01CB01243F4CE5340731F188F4293D5D
:10373000FCE53F07D9F02A3D4CE5340779F1283DF7
:103740003C45A9F506E221EE41EE68ED7CE52BC093
:10375000263FFCE53F07E1F0A8F0273F3C4539F55F
:1037600007E225EE46EE67EF7CE51DC007E225EE99
:1037700045EE69ED7CE517C006E221EE40EE64EF10
:103780007CE511C007E225EE44EE65EF7CE50BC059
:1037900006E221EE42EE66EF7CE505C008E221E09C
:1037A00045EE6AED7CE50E941C1B80E008C0FC0130
:1037B0008281882319F01092D80101C081E00F9115
:1037C0000895CF93DF93EC01FB018281882309F4F4
:1037D0001FC1C230FCE5DF0708F41BC1C6319CE500
:1037E000D90738F09E012B5F3C452930310508F0A0
:1037F00010C10E9451289093B5028093B402C03149
:10380000ECE5DE0709F4C3C008F041C0C8308CE520
:10381000D80709F49AC0F0F4C430ECE5DE0709F4E7
:1038200087C068F4C2308CE5D80709F477C0C3308C
:10383000DC4509F0E3C08091B402826076C0C630F6
:10384000ECE5DE0709F46EC008F07BC08091B4029D
:1038500088606BC0CC308CE5D80709F485C068F46B
:10386000CA30ECE5DE0709F474C008F079C00E94A4
:103870002B228091B402806858C0CE308CE5D807E6
:1038800009F476C008F07FC08091B4028BC0CC3FB1
:10389000ECE5DE0709F44FC018F5C3318CE5D80715
:1038A00009F47DC078F4C131ECE5DE0709F473C09A
:1038B000C231DC4509F0A2C00E942B228091B402E3
:1038C0008F7733C0C5318CE5D80709F472C008F48E
:1038D00086C0CB3FDC4509F091C08091B5023EC067
:1038E000C115FDE5DF0709F45FC058F4CE3F9CE544
:1038F000D90709F444C008F43FC08091B502826042
:103900002DC0C230FDE5DF0709F475C008F45DC0C5
:10391000C330DD4509F072C080E06EC08091B40212
:10392000816003C08091B40280618093B40266C05C
:103930008091B40211C08091B50282608093B5027B
:103940005DC08091B4028062F0CF8091B402806447
:10395000ECCF8091B40288608460E7CF8160EECFC5
:103960008091B4028E7FE1CF8091B4028D7FDDCF54
:103970008091B402877FD9CF8091B50218C0809121
:10398000B5028D7FDBCF8091B4028F7ECECF809148
:10399000B4028F7DCACF8091B4028F7BC6CF809155
:1039A000B402877F8B7FC1CF8091B5028D7F8E7FE0
:1039B000C5CF8091B40282FB222720F991E09227A3
:1039C00090FB82F990FB83F9B0CF8091B502982FDC
:1039D000909591708E7F892B90FB81F9AFCF0E94DB
:1039E0002B228091B40287FB222720F991E09227B5
:1039F00090FB87F99ACF81E00E94E7288091B4027A
:103A00009091B5020E9462280E942B2280E001C0A2
:103A100081E0DF91CF910895CF93DF9386319C456C
:103A200041F5EB010E949A27982F8A81209120016D
:103A300030912101882379F09A7A81E009F480E0BD
:103A40008093D901911102C069E201C065E3C90107
:103A50000E9482290AC08091D901811102C069E2C5
:103A600001C065E3C9010E948D290E94DB2780E027
:103A700001C081E0DF91CF9108959093DF018093A1
:103A8000DE010895E091DE01F091DF01309721F031
:103A90000190F081E02D099480E00895E091DE012D
:103AA000F091DF01309799F020912C01222359F0F9
:103AB0002091B40227FF07C0DC012C9111962C93B2
:103AC000119725E02C930280F381E02D099408954D
:103AD000E091DE01F091DF01309739F022E0DC0166
:103AE0002C930480F581E02D099408952091DC0148
:103AF0003091DD012817390771F09093DD01809333
:103B0000DC01E091DE01F091DF01309721F00680C9
:103B1000F781E02D099408952091DA013091DB01BD
:103B20002817390771F09093DB018093DA01E09157
:103B3000DE01F091DF01309721F00084F185E02D66
:103B4000099408950E943E2A6093F1017093F20156
:103B50008093F3019093F4016093ED017093EE0173
:103B60008093EF019093F00108950E943E2A6093A4
:103B7000F1017093F2018093F3019093F40160934B
:103B8000E9017093EA018093EB019093EC010895B1
:103B900085B7806885BF85B7806885BF089581E057
:103BA00008950C94CF1D08950C94D31D0C94D31D2F
:103BB0000C94D61D0C94D31D0C94DA1D0C94D31DBB
:103BC0000E94C81D87E89CE20E94902A0E94DE1D88
:103BD0000C94DC1D0E94292A0E944E170E94952AEF
:103BE0000E94BE1AE4EBF2E08081806880838091BD
:103BF000B4029091B5020E9462280C94D81D6F9275
:103C00007F928F929F92AF92BF92CF92DF92EF926C
:103C1000FF920F931F93CF93DF93CDB7DEB72A9711
:103C20000FB6F894DEBF0FBECDBF0E94D41D0E9418
:103C3000D31D0E94911781110E94A21D31EE832E87
:103C400031E0932E00E010E0C02E802F0E94DF169E
:103C50005C01F401619071904F016826792661142E
:103C60007104B1F40F5F1F4F0430110569F78FEF36
:103C700089838A831B820E94322A8160782F9D83E8
:103C80008C8349815A816B818D810E94BE1E3AC00E
:103C90008091790281FD0E94E816D12CEE24E394F4
:103CA000F12CC3018E219F21892B29F10E94D11D66
:103CB0008823A9F0DE82CF82AE20BF2081E0AB282E
:103CC00009F480E088870E94322A8160782F9A87E1
:103CD00089874E815F8168858A850E94BE1E000F9C
:103CE000111FF801EF51FE4F80819181E826F926DE
:103CF000F182E08207C0D394EE0CFF1CFCE0DF12DF
:103D0000D0CFB0CF0E94CF1A81110E94B51D0E9462
:103D10002D1A0E94421D9091E0018917D1F00E9456
:103D2000421D8093E0012A960FB6F894DEBF0FBEC5
:103D3000CDBFDF91CF911F910F91FF90EF90DF905A
:103D4000CF90BF90AF909F908F907F906F900C948A
:103D5000EA142A960FB6F894DEBF0FBECDBFDF91EE
:103D6000CF911F910F91FF90EF90DF90CF90BF9078
:103D7000AF909F908F907F906F900895DF92EF9219
:103D8000FF920F931F93CF93DF93CDB7DEB72B979F
:103D90000FB6F894DEBF0FBECDBFF42E052F162F41
:103DA000E72ED82E61110E94BA27FE01319686E0D7
:103DB000DF011D928A95E9F77E2D4F2D502F612F3F
:103DC0008D2D9E810E94E4242B960FB6F894DEBFC1
:103DD0000FBECDBFDF91CF911F910F91FF90EF905C
:103DE000DF900895FC01808191810E945B270895F6
:103DF000CF93882309F450C0C82F8CEF8C0F813AE1
:103E0000D0F46C2F80912001909121010E94022911
:103E1000882349F06C2F80912001909121010E940C
:103E20008D290E94DB276C2F809120019091210128
:103E30000E9482290CC080E28C0F883058F4C77031
:103E400081E001C0880FCA95EAF70E949D27CF91B3
:103E50000C94DB27EBE5EC0FE33040F4F0E0E455A5
:103E6000FE4F808190E0CF910C94761DE8E5EC0F39
:103E7000E73150F4F0E0EE0FFF1FE258FE4F808173
:103E80009181CF910C948C1DCD3E30F08C2F0E94EF
:103E9000D618CF910C948D19CF910895882389F16C
:103EA0009CEF980F913A40F4682F809120019091F7
:103EB00021010E948D290DC090E2980F983058F48E
:103EC000877091E001C0990F8A95EAF7892F0E94C7
:103ED000A3270C94DB279BE5980F933020F480E018
:103EE00090E00C94761D98E5980F973120F480E0CF
:103EF00090E00C948C1D8D3E20F00E942D190C94A6
:103F00008D1908951F93CF93DF93182FEB010E9413
:103F1000F81E209741F08FE99FE00197F1F700C06C
:103F200000002197F6CF812FDF91CF911F910C9444
:103F30004E1F893319F06AE070E002C060E570E05E
:103F40000C94821F882321F00E949D270C94DB276C
:103F50000895882321F00E94A3270C94DB2708955D
:103F6000CF92DF92EF92FF920F931F93CF93DF9345
:103F70007C01D62FC72FFC011281058102950F709D
:103F80000E949327882399F0112389F08C2F807F3A
:103F9000803421F080E28D0F883048F082E00E946A
:103FA00025280E94932791E0D82ED92601C0D12C34
:103FB000CC2EC2948FE0C8228C2D90E08C309105DD
:103FC00008F0BBC1FC01E657FF4F0C9468328C2F00
:103FD000807FCF70882311F0C295C07F112399F0A4
:103FE000CC2309F491C180E28D0F883010F0D111FB
:103FF00004C08C2F0E949D2703C08C2F0E94AD27E8
:104000000E94DB2781C18D2F0E944E1FCC2309F413
:1040100094C180E28D0F883010F0D11104C08C2F34
:104020000E94A32703C08C2F0E94B3270E94DB2786
:1040300084C18C2F807FCF70803211F0C295C07FF9
:10404000DD2319F0D130C9F022C0112371F0002313
:1040500041F0013031F40E94C0278C2B0E94C82708
:104060006CC10E94C0278C2B1DC0002319F00130A9
:1040700009F463C10E94D12725C0112321F0063025
:1040800008F05BC10EC0053008F057C11BC01123FA
:1040900061F0002331F0F701858180FF35C18F7019
:1040A00085838C2F0E94A21F48C1002359F0D93369
:1040B00009F03AC1FFEF07EE13E0F1500040104065
:1040C000E1F736C18C2F0E94A91F37C18C2F86952E
:1040D0008695837019F0813061F02FC1112321F092
:1040E0008D2F9C2F937002C080E090E00E94761D7F
:1040F0002CC1112321F08D2F9C2F937002C080E0E2
:1041000090E00E948C1D21C18D2F112319F00E9477
:10411000D61802C00E942D190E948D1916C18C2F2D
:10412000837009F047C011110CC12D2F22952695DF
:104130002770220F220F6D2F6F70862F90E0A0E066
:10414000B0E0022E04C0880F991FAA1FBB1F0A945B
:10415000D2F7D4FF10C04FE050E060E070E004C040
:10416000440F551F661F771F2A95D2F7409550952B
:104170006095709503C040E050E0BA01C695C695C1
:10418000C3708A019B01082B192B2A2B3B2BC901D9
:10419000B801C23049F058F4C13019F00E94B82576
:1041A000D0C00E94A625CDC00E94CA25CAC00E94C8
:1041B000A425C7C0112319F08C2F817001C08695EA
:1041C000882309F4BEC02D2F229526952770220F33
:1041D000220F6D2F6F70862F90E0A0E0B0E0022ECE
:1041E00004C0880F991FAA1FBB1F0A94D2F7D4FFDF
:1041F00010C04FE050E060E070E004C0440F551F75
:10420000661F771F2A95D2F7409550956095709557
:1042100003C040E050E0BA01C695C695C3708A015C
:104220009B01082B192B2A2B3B2BC901B801C2304B
:1042300049F058F4C13019F00E949D2682C00E94B6
:104240008B267FC00E94AF267CC00E94DE2579C0ED
:10425000CF70112339F08C2F0E9424268D2F0E94BD
:10426000A21F6FC08D2F0E94A91F8C2F0E94452670
:1042700068C0D23F01F128F4D03F41F0D13FA1F016
:104280003FC0D33FF9F0D43F39F13AC0112341F098
:10429000053008F052C08C2F8F710E946A264DC0E5
:1042A000063008F04AC0F7CF112339F08C2F8F71F8
:1042B0000E94242642C01123C9F38C2F8F710E94C3
:1042C00045263BC0112329F08C2F8F710E940F26A9
:1042D00034C00E94EA2531C0112349F0CF718C2FE0
:1042E0000E94242663E08C2F0E94102826C081E0C3
:1042F0000E942528023008F182E00E9425281DC076
:10430000112331F0002391F28D2F0E94F81E15C069
:10431000002399F2D93341F41FEF27EE33E0115017
:1043200020403040E1F704C08FE39CE90197F1F7AA
:1043300000C000008D2F0E944E1F88EF8C0D84302E
:1043400020F40E94421D0E94EA14DD20C9F00E9460
:104350008F2780FD15C0F70112820E9489270E94D5
:104360002426C7010E94E1210E948927DF91CF9175
:104370001F910F91FF90EF90DF90CF900C94452606
:10438000DF91CF911F910F91FF90EF90DF90CF9031
:1043900008950F931F93CF93DF93EC016881798188
:1043A0008A810E9466278C010E94C1260E94922564
:1043B000B801CE010E94B01FDF91CF911F910F91E4
:1043C0000895CF93DF93EC01988189812B813C8103
:1043D000232B31F08F3F31F481E09F3F19F403C06C
:1043E00081E001C080E080FD19C0CE010E94AB13C6
:1043F00081110CC00E949327882381F08A81882331
:1044000069F082E0DF91CF910C942528CE010E94C3
:10441000C921CE01DF91CF910C943213DF91CF915E
:10442000089580E090E00E94761D80E090E00E9478
:104430008C1D0E94BA270E94BD270E94DB270E9484
:10444000B01A0C948D1980912001909121010E9445
:1044500098290C9411220E94AA270C942322E92F58
:10446000E295EF704E2F50E0FA013297EE30F105F1
:10447000B0F4EA56FF4F0C946832803F91F018F484
:10448000883E68F40EC0843F51F40BC0883E48F06B
:10449000813F29F406C093FB882780F9089580E0C6
:1044A000089581E008950E945B270E942F220895BD
:1044B000CF93DF9300D000D01F92CDB7DEB70F901F
:1044C0000F900F900F900F90DF91CF910895CF93A1
:1044D000DF9300D000D000D0CDB7DEB726960FB660
:1044E000F894DEBF0FBECDBFDF91CF9108951F932B
:1044F000CF93DF93C091F60116E08091F701C817C2
:1045000099F0D0E01C9FF0011D9FF00D1124E850A0
:10451000FE4F4081518162817381848195810E9427
:1045200067222196C770E9CFDF91CF911F9108953F
:10453000409128025091290260912A0270912B0229
:1045400080912C0290912D020C9467220F931F935F
:10455000CF93DF9380912D0282958F7009F05DC01B
:1045600080912A02882309F458C08091F6011091A5
:10457000F7016091280270912902C0912B02D0911D
:104580002C0291E06F3F09F090E0292F06E081179F
:1045900009F443C0209721F07F3F21F030E003C0B1
:1045A00031E001C0322F90E030FD34C0089FF001AF
:1045B000099FF00D1124DF01A850BE4F11963C91C8
:1045C0001197371327C03C91361324C012963C91A3
:1045D000129731111FC013964D915C9114974C1B8B
:1045E0005D0B483C5105B0F480912D028F708061C5
:1045F00080932D02E350FE4F80818F708061808315
:1046000088E292E00E94E121DF91CF911F910F910A
:104610000C94772201968770BACFDF91CF911F91CA
:104620000F9108959F92AF92BF92CF92DF92EF9237
:10463000FF920F931F93CF93DF93CDB7DEB76197B0
:104640000FB6F894DEBF0FBECDBF8C0185E0F80138
:10465000DE011D9601900D928A95E1F7F8014081E7
:104660005181E280909128026091290220912B02D1
:1046700030912C022115310531F06F3F31F481E08A
:104680009F3F19F403C081E001C080E0F82FF17072
:104690009F2E80FD46C1F801A380B48088E2C82E19
:1046A00082E0D82EF0902A02F501E21BF30BFF20E6
:1046B00009F4DFC080912D02E83CF10508F09BC0B1
:1046C000282F207F09F052C0561313C0491311C080
:1046D000FE2CE1100EC08F70806180932D020E942D
:1046E0009822C6010E94E12180912D02F801858364
:1046F00058C1AB2831F05F3F31F481E04F3F19F4EE
:1047000003C081E001C080E080FD03C081E08E2510
:1047100002C080E090E0F82FF170FF2E80FF1CC0F7
:104720008091F6012091F70136E0821709F417C154
:1047300090E0389FF001399FF00D1124E850FE4FB2
:104740006181561306C06081461303C06281E61280
:1047500003C001968770E9CFFE2CEE2009F421C139
:1047600080912D02816080932D025AC0561306C09D
:10477000491304C0E11002C0F8019FC04D875E8755
:104780008D859E850E945322882379F1EE2069F160
:1047900020912D02822F82958F7090E0029774F005
:1047A000809128029091290298878F831986BB8671
:1047B000AA862C87CE0107960E94E12186E0F801A7
:1047C000A8E2B2E001900D928A95E1F70E94A6223C
:1047D0000E9498220DC0561729F14D875E878D855E
:1047E0009E850E94532281112CC0C8010E94E121A4
:1047F000FF24F394D6C0282F207F69F77A2DB98A39
:10480000A88A6E2D89890E94582288E292E00E942F
:10481000E12186E0F60111928A95E9F70E9498223B
:10482000F12CBFC04913D9CFE110D7CFF801858350
:10483000C8010E94E12186E0F60111928A95E9F70C
:10484000B0C0EE2091F220912D02822F82958F70C0
:1048500090E002970CF4B2CF809128029091290247
:104860009A8389831B82BD82AC822E83CE010196FE
:10487000A3CFE83CF10508F047C0FE2CEE2009F478
:10488000B4CF561330C049132EC020912D0220FD05
:1048900021C0822F82958F70482F50E0411551051D
:1048A000C9F0F80125834F30510541F08F5F982FF3
:1048B0009295907F822F8F70892B8583C8010E94EB
:1048C000E12186E0F801A8E2B2E001900D928A951C
:1048D000E1F742C086E0F801A8E2B2E001900D9253
:1048E0008A95E1F75EC04D875E878D859E850E9423
:1048F0005322811163CF80912D02816080932D021C
:10490000C8010E94E1214DC07A2DB98AA88A6E2D76
:1049100089890E94582286E0F60111928A95E9F76A
:104920001BC0EE2009F461CF4D875E878D859E8583
:104930000E945322F82E882309F457CF86E0F8010D
:10494000A8E2B2E001900D928A95E1F788E292E048
:104950000E94F21E0E94A6220E94982222C04D8729
:104960005E878D859E850E945B27292F22952F705B
:10497000223028F49F7039F0811105C00BC024301B
:1049800028F49F7049F4805E883020F0C8010E94AE
:10499000E1219F2CF92C05C0F8019581907F99F7B2
:1049A000F9CF8F2D61960FB6F894DEBF0FBECDBF45
:1049B000DF91CF911F910F91FF90EF90DF90CF90FB
:1049C000BF90AF909F9008951F93CF93DF93CDB783
:1049D000DEB72C970FB6F894DEBF0FBECDBF4F8366
:1049E000588769877A878B879C87CE0107960E94B4
:1049F00012238823D1F09F8188852A853B85232B2C
:104A000031F08F3F31F481E09F3F19F403C081E022
:104A100001C080E080FD47C04F81588569857A8557
:104A20008B859C850E9467223EC086E0FE013796FA
:104A3000DE01119601900D928A95E1F7FF81E885DC
:104A40006A857B856115710531F0EF3F31F481E0B6
:104A5000FF3F19F403C081E001C080E080FD23C066
:104A60002091F70130E0C9010196877099274091A4
:104A7000F60150E084179507F1F1F983EA837D830D
:104A80006C8396E0929FD001939FB00D1124A850A3
:104A9000BE4FFE01319601900D929A95E1F78093F9
:104AA000F7010E94772216E08091F6019091F701BC
:104AB000891771F1189FC001112488509E4F0E94E0
:104AC0001223882329F1E091F6011E9FF0011124A1
:104AD000E850FE4F408151816281738184819581CC
:104AE0000E9467228091F60190E0019687709927D5
:104AF0008093F601D9CF0E942B221092F7011092D9
:104B0000F601E8E2F2E086E0DF011D928A95E9F71E
:104B10002C960FB6F894DEBF0FBECDBFDF91CF91BC
:104B20001F910895089508950C9493250C9494254D
:104B30000E94962560935002709351028093520216
:104B4000909353020C9411220C9498250F931F9369
:104B50000091500210915102209152023091530263
:104B6000602B712B822B932B1F910F910C94982506
:104B70000F931F9300915002109151022091520205
:104B80003091530260237123822393231F910F914D
:104B90000C9498250F931F9300915002109151028D
:104BA0002091520230915302602771278227932768
:104BB0001F910F910C9498250C9438110E94DC25BC
:104BC00060934C0270934D0280934E0290934F027B
:104BD0000C94112260E070E0CB010C94DE2561158D
:104BE00071058105910529F481E0442361F080E09D
:104BF0000895DC01CB0104C0B695A79597958795DC
:104C00004A95D2F781700895482F60914C027091B7
:104C10004D0280914E0290914F020C94EF250F931C
:104C20001F9341E050E060E070E08A019B0104C006
:104C3000000F111F221F331F8A95D2F7C901B80137
:104C40001F910F910C94DE250F931F9341E050E0CC
:104C500060E070E004C0440F551F661F771F8A95FF
:104C6000D2F780914C0290914D02A0914E02B091EA
:104C70004F028A019B01082B192B2A2B3B2BC901C0
:104C8000B8011F910F910C94DE250F931F9341E003
:104C900050E060E070E004C0440F551F661F771FAE
:104CA0008A95D2F7409550956095709580914C0209
:104CB00090914D02A0914E02B0914F028A019B014A
:104CC000082319232A233B23C901B8011F910F91FF
:104CD0000C94DE250F931F9341E050E060E070E0FC
:104CE00004C0440F551F661F771F8A95D2F7809125
:104CF0004C0290914D02A0914E02B0914F028A0158
:104D00009B01082719272A273B27C901B8011F91B2
:104D10000F910C94DE250F931F9300914C0210917C
:104D20004D0220914E0230914F02602B712B822B4D
:104D3000932B1F910F910C94DE250F931F930091DD
:104D40004C0210914D0220914E0230914F0260238F
:104D50007123822393231F910F910C94DE250F93CF
:104D60001F9300914C0210914D0220914E02309100
:104D70004F0260277127822793271F910F910C9470
:104D8000DE2508952CE0929F800D1124E82FE695F2
:104D9000E695E695877051E001C0550F8A95EAF7D0
:104DA00085E0E89FF0011124E25DFD4F20E030E056
:104DB00070E04081CB01022E02C0969587950A943F
:104DC000E2F78170819584278523842781932F5F63
:104DD0003F4F2530310569F708952CE0929F800DF3
:104DE0001124682F669566956695982F977085E0D3
:104DF000689FB001112440E050E080E0FB01E40F27
:104E0000F51FE25DFD4F208130E0092E02C036958E
:104E100027950A94E2F721703327042E01C0220F50
:104E20000A94EAF7822B4F5F5F4F4530510531F707
:104E30000895BF92CF92DF92EF92FF920F931F934C
:104E4000CF93DF938C01C0904C02D0904D02E09044
:104E50004E02F0904F028091500290915102A09129
:104E60005202B0915302C82AD92AEA2AFB2ACFE17A
:104E7000D0E0D701C6010C2E04C0B695A795979532
:104E800087950A94D2F780FD04C0219790F7B12C42
:104E900007C0BC2EB8018C2F0E9406150197A9F3FC
:104EA0008B2DDF91CF911F910F91FF90EF90DF90AD
:104EB000CF90BF900895CF93DF93EC010E94192704
:104EC000BE010E940615DF91CF9108951F93CF93E5
:104ED000DF93EB019091F501992321F0CB010E9422
:104EE0005B2713C0882349F0CB010E941927182F94
:104EF000682FCE010E94C22604C0CB010E94ED267D
:104F0000182FBE01812F0E940615DF91CF911F91AE
:104F10000895809154028595859585950895809191
:104F200054028770089590915402977081E009F4BB
:104F300080E0089580917802089590917802892BFD
:104F400080937802089580959091780289238093C8
:104F50007802089510927802089590917702892B33
:104F600080937702089580959091770289238093AA
:104F700077020895109277020895109276020895AC
:104F800080915502089508950C94C3270C94C4276A
:104F900090915502981721F0809355020C94C627E2
:104FA000089580915502882329F01092550280E0DF
:104FB0000C94C6270895E0912001F0912101809181
:104FC00078028083E0912001F0912101908180910D
:104FD0007702892B8083E0912001F091210190815B
:104FE00080917602892B808380915502882381F0FD
:104FF000E0912001F09121019081892B80838091A3
:105000002001909121010E94EC2881110E94D1275A
:1050100080912001909121010C944E1D0C94C32786
:1050200098E0899F90011124262B209354020E941E
:105030002426809154028595859585950C940E289B
:105040001092540280E00C940E2820915402809516
:10505000822380935402982F977079F430E0482F80
:10506000082E000C550B2417350739F085958595CA
:1050700085950E9445260C942028089580E090E0B4
:105080000E948A3221E08B3E9E4F09F020E0822F61
:10509000089582E090E00C94823283E090E00C94DA
:1050A0008232CF9384E090E00E948232C82F81E266
:1050B00090E00E9482322C2F30E0A901582BCA01C7
:1050C000CF910895CF93C92F682F84E090E00E947C
:1050D00090326C2F81E290E0CF910C949032AB0132
:1050E000BC018FE090E00C94A232AB01BC0183E1E3
:1050F00090E00C94A23260E070E0CB010C94752833
:1051000060E070E0CB010E946F280C947B286BEE6E
:105110007EEF80E090E00E94AE3260E082E090E0BE
:105120000E94903260E083E090E00E949032109202
:10513000500210925102109252021092530260E0FB
:1051400084E090E00E94903260E081E290E00E9472
:10515000903260E085E090E00E94903260E086E06E
:1051600090E00E9490326FEF87E090E00E949032D2
:1051700040E050E0BA0188E090E00E94A23260E096
:105180008DE090E00E94903240E050E0BA0188E16A
:1051900090E00E94A23260E087E190E00E949032AD
:1051A00040E050E0BA018CE190E00E94A23260E061
:1051B00080E290E00E94903240E050E0BA0188E145
:1051C00090E00E94A2320C9480280C948728682FCB
:1051D0008EE090E00C949032FC01329680912C018C
:1051E000882331F08091B40287FF02C09EE101C0A4
:1051F00096E080E0915028F021912223D9F38F5F2F
:10520000F9CF0895662351F120912C012223E9F072
:105210002091B40227FF19C0462F46954695469522
:105220004E31E0F4677021E030E002C0220F331FFE
:105230006A95E2F7FC01E40FF11D828190E02823DA
:10524000392381E0232B69F409C0FC0132960896CA
:105250002191621729F0E817F907D1F780E0089546
:1052600081E008959C01FC0132969FEF80E041911E
:10527000461789F09F3F19F4411101C0982F8F5FA5
:105280008630A9F79F3F39F0F901E90FF11D97FD2D
:10529000FA956283089508959C012A5F3F4FFC01AF
:1052A0004281461301C01282019682179307B9F713
:1052B0000895262F2695269526952E3168F4FC0113
:1052C000E20FF11D677021E030E001C0220F6A9506
:1052D000EAF78281282B22830895262F269526958A
:1052E00026952E3170F4FC01E20FF11D677021E06C
:1052F00030E001C0220F6A95EAF7209582812823C9
:105300002283089520912C01222329F02091B402B8
:1053100027FD0C9459290C94322920912C01222329
:1053200029F02091B40227FD0C946D290C944C298E
:1053300020912C01FC013296222331F08091B4029D
:1053400087FF02C08EE101C086E0DF011D928A95D1
:10535000E9F7089508950C94AA290C94AA29CF93EB
:105360000E94AD290E9491170E94AB29C0E08C2FAA
:105370000E94DF16892B29F4CF5FC430C1F780E08B
:1053800001C081E0CF9108950C94AA290C94C429FE
:105390008091BA02843049F10E94C62980E00E94BF
:1053A000EA1410927A0220E488E190E00FB6F894B3
:1053B000A895809360000FBE2093600083B7817F23
:1053C000846083BF83B7816083BF7894889583B7F7
:1053D0008E7F83BF0FB6F894A89580916000886196
:1053E00080936000109260000FBE08950C94AA296B
:1053F0000E942B220E94421D0E94EA140C94F6295E
:105400001F920F920FB60F9211248F939F93AF9319
:10541000BF9380917A02811113C08091B002909164
:10542000B102A091B202B091B3024196A11DB11D8B
:105430008093B0029093B102A093B202B093B302F2
:10544000BF91AF919F918F910F900FBE0F901F90C2
:10545000189582E084BD93E095BD9AEF97BD809347
:105460006E0008952FB7F8948091B0029091B10228
:10547000A091B202B091B3022FBF08952FB7F89454
:105480006091B0027091B1028091B2029091B3022A
:105490002FBF08959C014FB7F8948091B00290916E
:1054A000B102A091B202B091B3024FBF821B930B25
:1054B000089578941F920F920FB60F9211248F9334
:1054C0009F93AF93BF938091B0029091B102A0914E
:1054D000B202B091B3020196A11DB11D8093B0023A
:1054E0009093B102A093B202B093B302BF91AF9177
:1054F0009F918F910F900FBE0F901F90189587E787
:1055000097E790930108809300089AE088E10FB62E
:10551000F894A895809360000FBE90936000FFCF31
:105520009093BF018093BE0108950E943E2881118F
:1055300002C00E94E5280E944928809379020E94B7
:1055400051289093B5028093B4020E944D28682F91
:1055500070E080E090E00E94A42560914C02709180
:105560004D0280914E0290914F020C94DC25809167
:105570009E020895CF93DF9300D01F92CDB7DEB780
:105580009091BA02943019F589837B836A8382E013
:105590008093E9008FEF9091E800815095FD06C05F
:1055A00095ED9A95F1F700008111F5CF8091E80013
:1055B00085FF0DC040E050E063E070E0CE01019651
:1055C0000E94AB2D8091E8008E778093E8000F90C9
:1055D0000F900F90DF91CF910895BC0184E00C945F
:1055E000BA2ABC0183E00C94BA2A22E02093E90095
:1055F0002FEF3091E800215035FD06C035ED3A958A
:10560000F1F700002111F5CF2091E80025FF0BC034
:1056100040E050E066E070E00E94AB2D8091E80031
:105620008E778093E8000895CF93DF9320912C012B
:10563000222339F02091B40227FF03C060E222E068
:1056400002C068E021E02093E9002FEF3091E800EC
:10565000215035FD06C035ED3A95F1F700002111D6
:10566000F5CF2091E80025FF1DC0EC0180912C01B1
:10567000811105C040E050E068E070E003C070E0D8
:1056800040E050E0CE010E94AB2D8091E8008E7783
:105690008093E80080E2FE01AEE7B2E001900D9257
:1056A0008A95E1F7DF91CF9108958DEA9EE10E94FE
:1056B0008C108091B902811109C00E943C2F0E9478
:1056C000992F8091E20084608093E200089589EA36
:1056D0009EE10E948C101092B902089585EA9EE125
:1056E0000C948C1081EA9EE10C948C108DE99EE163
:1056F0000C948C1020917C022F5F822F62E30E9419
:105700004832992319F020937C02089510927C026C
:1057100080917D02882371F18091BA02843041F535
:105720008091E9008F702091EC00922F917020FD04
:1057300090E8892B93E09093E9009091EB0090FF23
:1057400014C09091EE0097FF10C09091E80095FF73
:1057500003C01092F100F9CF9091E80090FF05C0CE
:105760009091E8009E779093E8008F708093E90015
:1057700010927D02089542E061EC81E00E94B52E16
:1057800042E261EC82E00E94B52E42E261EC83E0ED
:105790000C94B52E8091BC02833009F460C030F4C3
:1057A000813071F0823009F499C008958A3009F48B
:1057B00085C08B3009F46BC0893009F0A7C020C0C8
:1057C0008091BB02813A09F0A1C08091E800877FF7
:1057D0008093E8008091BF029091C002892B21F450
:1057E00060E28EE792E003C060E080E090E070E06D
:1057F0000E94F62D8091E8008B778093E800089551
:105800008091BB02813209F081C08091BF029091EA
:10581000C002029708F07AC08091E800877F8093E9
:10582000E8008091E80082FD05C08091BA028111F4
:10583000F8CF6CC02091F3008091F20090E0922BA1
:10584000029729F48091F1008B7F813021F48091BF
:10585000F10080939E028091E8008B7753C0809185
:10586000BB02813A09F052C08091BF029091C00200
:10587000892B09F04BC08091E800877F8093E80076
:105880008091E80080FFFCCF80912C0136C0809190
:10589000BB028132D9F58091BF029091C002892B61
:1058A000A9F58091E800877F8093E8000E94EA2EA6
:1058B0008091BD0280932C010C942B228091BB021D
:1058C000813221F58091E800877F8093E8000E9473
:1058D000EA2E8091BE0280939F0208958091BB02C0
:1058E000813AA1F48091E800877F8093E80080915D
:1058F000E80080FFFCCF80919F028093F1008091AF
:10590000E8008E778093E8000C94EA2E08959FB704
:10591000F89410927D029FBF9091BA02943009F0E2
:1059200057C09091E9009F703091EC00232F2170B7
:1059300030FD20E8922B23E02093E9002091EB003A
:1059400020FF43C02091EE0027FF3FC020917B0243
:10595000222321F02091E80025FF37C010927B021E
:1059600026E03091E80035FD15C03091BA023430A0
:1059700061F53091EB0035FD28C0215021F481E024
:1059800080937B0222C0EFE9FFE03197F1F700C07E
:105990000000E7CF8093F1008091E80085FD0AC008
:1059A0008091E80080FFFCCF8091E8008E778093A3
:1059B000E80006C08FB7F89421E020937D028FBFE6
:1059C0009F709093E90080E008959F709093E900A4
:1059D0008FEF089584B7877F84BF0FB6F894A8959A
:1059E00080916000886180936000109260000FBE1B
:1059F00090E080E80FB6F894809361009093610086
:105A00000FBE0E94E01D0E943C2F0E94992F8091A2
:105A1000E20084608093E20078940E942D320E941C
:105A2000EA1D82E291E00E943D1D8CE89EE10E9409
:105A30008C108091BA028530C9F488E89EE10E94FA
:105A40008C108091BA02853079F40E94C829809127
:105A5000B8028823B1F30E94AF29882391F30E94F2
:105A6000952D0E942B22EDCF0E94F8290E94FF1D48
:105A70000E94D41D0E94D31DDCCF0C943F2D292FF2
:105A8000332723303105C9F060F42130310581F02E
:105A90002230310509F041C08BE590E029EE3EE16E
:105AA00040C021323105E1F02232310531F135C0FB
:105AB00082E190E024E43FE134C0992781309105F0
:105AC00049F028F0029749F5E1EBFEE105C0E5EE6B
:105AD000FEE102C0E5ECFEE1849190E09F0121C06F
